:020000020000FC
:0200000005C039
:100008000C944A00F89408E005BF00E80BBF789408
:10001800FFCF2FEF2ABB413011F426E02BBB423033
:1000280011F42BE52BBB443011F42FE42BBB4830E3
:1000380011F426E62BBB403111F42DE62BBB4032E0
:1000480011F42DEF2BBB403411F427E02BBB4038C3
:1000580011F42FEF2BBB0895B09BB19905C0C2983E
:10006800C398C69A00000FC0B09BB19B05C0C29A46
:10007800C398C59A000007C0B099B19904C0C29846
:10008800C39AC49A000049B340950895F89400E0D3
:100098000ABB0FE307BB00E308BB0E9430000E94C5
:0600A8000D00789408959C
:00000001FF
