:020000020000FC
:1000000040E040E846B940E040E040BF40E047B152
:1000100040E847B94FEF41BBE2D010D054B165B1D1
:10002000152F68D0D1D0162F65D0CED014D074B192
:1000300085B1681769F1B8F170F5EECF3898399845
:100040003A9846B1406446B945B740E145BF46B12C
:1000500046FDFDCF089547B1389A46B1406446B990
:1000600045B740E145BF46B146FDFDCF089547B1D4
:10007000399A389846B1406446B945B740E145BF22
:1000800046B146FDFDCF089594980895949A089539
:10009000571708F440F09298EADF94B1A5B16A17B7
:1000A00031F058F038F4929A0E944400B5CF5917B5
:1000B00008F418F00E944400AFCF0E944600ACCF75
:1000C00014B025B015BA122D15D07ED0112D12D036
:1000D0007BD004B3006F04BB05B30F70107F012BFE
:1000E00005BBAB9A000000000000AB9804B30F7092
:1000F00004BB08951F9304B3006F04BB05B30170E4
:10010000107F012B05BBA99AAB9A000000000000EC
:10011000AB981F910F701295107F012B05BBA99A08
:10012000AB9A000000000000AB98A99804B30F70D0
:1001300004BB08951F9304B3006F04BB05B30170A3
:10014000107F012B05BBAB9A000000000000AB98AC
:100150001F910F701295107F012B05BBAB9A000009
:1001600000000000AB9804B30F7004BB089504B303
:100170000F7004BBA99AAA9AAB9A000003B3007F40
:10018000202FAB9800000000AB9A000003B3007F63
:100190000295202BAB98A998AA98089504B30F70E4
:1001A00004BBA998AA9AAB9A000003B3007F202F42
:1001B000AB9800000000AB9A000003B3007F0295EB
:1001C000202BAB98AA980895E9DF2078E9F70895E5
:1001D000222433243A94F1F72A94D9F708950EE0B3
:1001E00004BBF6DF10E275DFEFDF18E2A3DFECDF20
:1001F0001FE0A0DFE9DF11E09DDFE6DF16E09ADF18
:0202000008955F
:00000001FF
