:020000020000FC
:0200000003C03B
:100004000C941C0000EF04BB0FE005BB00E001BB37
:1000140004E002BB00E40BBF02B105BF0CEF0BB957
:100024000FE10AB906EA00BD01E000BD00EA09B922
:100034007894FFCF0E9425005D9BFECF509850FD21
:10004400509A4CB91895F8941FEF15BB10EE15BBD8
:10005400989B00E3999B01E39A9B02E39B9B03E338
:1000640010ED15BB989B04E3999B05E39A9B06E36B
:100074009B9B07E310EB15BB989B08E3999B09E353
:100084009A9B01E49B9B02E410E715BB989B03E455
:10009400999B04E49A9B05E49B9B06E4402F1FE094
:0400A40015BB1895DB
:00000001FF
