:020000020000FC
:100000000FE50DBF04E00EBF0FEF04BB06E806B915
:1000100001E407B9E6D0369A3699FECF14B125B07F
:1000200015BA1A3080F01431B0F01E31E0F01832F9
:1000300010F1123340F11C3370F11634A0F1103579
:10004000D0F11436E7CF11E30E947C0010E30E9448
:100050007C00BCD0DFCF12E30E947C0010E30E9442
:100060007C00B4D0D7CF13E30E947C0010E30E9441
:100070007C00ACD0CFCF14E30E947C0010E30E9440
:100080007C00A4D0C7CF15E30E947C0010E30E943F
:100090007C009CD0BFCF16E30E947C0010E30E943E
:1000A0007C0094D0B7CF17E30E947C0010E30E943D
:1000B0007C008CD0AFCF18E30E947C0010E30E943C
:1000C0007C0084D0A7CF19E30E947C0010E30E943B
:1000D0007C007CD09FCF04B3006F04BB05B30F70CE
:1000E000107F012B05BBAB9A000000000000AB980D
:1000F00004B30F7004BB08951F9304B3006F04BBD7
:1001000005B30170107F012B05BBA99AAB9A0000C3
:1001100000000000AB981F910F701295107F012B0B
:1001200005BBA99AAB9A000000000000AB98A99803
:1001300004B30F7004BB08951F9304B3006F04BB96
:1001400005B30170107F012B05BBAB9A00000000C6
:100150000000AB981F910F701295107F012B05BB0B
:10016000AB9A000000000000AB9804B30F7004BB12
:10017000089504B30F7004BBA99AAA9AAB9A000021
:1001800003B3007F202FAB9800000000AB9A000063
:1001900003B3007F0295202BAB98A998AA980895E5
:1001A00004B30F7004BBA998AA9AAB9A000003B3DA
:1001B000007F202FAB9800000000AB9A000003B333
:1001C000007F0295202BAB98AA980895E9DF20784C
:1001D000E9F70895222433243A94F1F72A94D9F7C1
:1001E00008950EE004BBF6DF10E275DFEFDF18E2E2
:1001F000A3DFECDF1FE0A0DFE9DF11E09DDFE6DF3A
:0602000016E09ADF0895EC
:00000001FF
