:020000020000FC
:100000000C9404000C941A000FE50DBF04E00EBF21
:1000100000EF04BB0FE005BB0FEF07BB00E008BB20
:1000200000E001BB04E002BB00E40BBF02E005BF3F
:100030007894FFCF0E941D001895F8941FEF15BB10
:1000400010EE15BB989B2FE3999B26E09A9B2BE51E
:100050009B9B2FE410ED15BB989B26E6999B2DE604
:100060009A9B2DE79B9B27E010EB15BB989B2FE7F6
:10007000999B2FE69A9B27E79B9B2CE710E715BBE4
:10008000989B21E6999B2EE59A9B29E79B9B21E76C
:0C009000022E08BA1FE015BB78940895FA
:00000001FF
