:020000020000FC
:100000000C9404000C9422000FE50DBF04E00EBF19
:1000100000EF04BB0FE005BB0FEF07BB00E008BB20
:1000200000E001BB04E002BB05B7026005BF0BB7EF
:1000300000640BBF0E94000110E80E94AB0030E09A
:100040007894FFCF0E9427000E9456001895F894DC
:100050001FEF15BB10EE15BB989B20E0999B21E08C
:100060009A9B22E09B9B23E010ED15BB989B24E01C
:10007000999B25E09A9B26E09B9B27E010EB15BB04
:10008000989B28E0999B29E09A9B2AE09B9B2BE078
:1000900010E715BB989B2CE0999B2DE09A9B2EE0D6
:1000A0009B9B2FE01FE015BB78940895022F0A5008
:1000B00042F4022F10E3100F33950E948B000C9432
:1000C0006E003395339511E30E948B00122F1A5066
:1000D00060E3160F0E948B000C946E001CE20E94DD
:1000E0008B00432F49500AF4089510EC0E94AB0096
:1000F00030E008950AB3006F0ABB0BB30F70107F96
:10010000012B0BBBDB9A000000000000DB980AB358
:100110000F700ABB08951F930AB3006F0ABB0BB39D
:100120000170107F012B0BBBD99ADB9A00000000F5
:100130000000DB981F910F701295107F012B0BBBF5
:10014000D99ADB9A000000000000DB98D9980AB326
:100150000F700ABB08951F930AB3006F0ABB0BB35D
:100160000170107F012B0BBBDB9A00000000000028
:10017000DB981F910F701295107F012B0BBBDB9A40
:10018000000000000000DB980AB30F700ABB08955E
:100190000AB30F700ABBD99ADA9ADB9A000009B346
:1001A000007F202FDB9800000000DB9A000009B3DD
:1001B000007F0295202BDB98D998DA9808950AB32E
:1001C0000F700ABBD998DA9ADB9A000009B3007F56
:1001D000202FDB9800000000DB9A000009B3007FAD
:1001E0000295202BDB98DA980895E9DF2078E9F76B
:1001F0000895222433243A94F1F72A94D9F70895E4
:100200000EE00ABBF6DF10E275DFEFDF18E2A3DFD6
:10021000ECDF1FE0A0DFE9DF11E09DDFE6DF16E0A5
:040220009ADF0895C4
:00000001FF
